{
  "_format": "hh-sol-artifact-1",
  "contractName": "TOEFLCertificate",
  "sourceName": "contracts/TOEFLCertificate.sol",
  "abi": [
    {
      "inputs": [],
      "stateMutability": "nonpayable",
      "type": "constructor"
    },
    {
      "anonymous": false,
      "inputs": [
        {
          "indexed": true,
          "internalType": "string",
          "name": "certId",
          "type": "string"
        },
        {
          "indexed": true,
          "internalType": "bytes32",
          "name": "merkleRoot",
          "type": "bytes32"
        },
        {
          "indexed": false,
          "internalType": "address",
          "name": "issuedBy",
          "type": "address"
        },
        {
          "indexed": false,
          "internalType": "uint256",
          "name": "issuedAt",
          "type": "uint256"
        }
      ],
      "name": "CertificateIssued",
      "type": "event"
    },
    {
      "anonymous": false,
      "inputs": [
        {
          "indexed": true,
          "internalType": "string",
          "name": "certId",
          "type": "string"
        },
        {
          "indexed": false,
          "internalType": "address",
          "name": "revokedBy",
          "type": "address"
        },
        {
          "indexed": false,
          "internalType": "uint256",
          "name": "revokedAt",
          "type": "uint256"
        }
      ],
      "name": "CertificateRevoked",
      "type": "event"
    },
    {
      "anonymous": false,
      "inputs": [
        {
          "indexed": true,
          "internalType": "address",
          "name": "issuer",
          "type": "address"
        }
      ],
      "name": "IssuerAuthorized",
      "type": "event"
    },
    {
      "anonymous": false,
      "inputs": [
        {
          "indexed": true,
          "internalType": "address",
          "name": "issuer",
          "type": "address"
        }
      ],
      "name": "IssuerRevoked",
      "type": "event"
    },
    {
      "inputs": [
        {
          "internalType": "address",
          "name": "issuer",
          "type": "address"
        }
      ],
      "name": "authorizeIssuer",
      "outputs": [],
      "stateMutability": "nonpayable",
      "type": "function"
    },
    {
      "inputs": [
        {
          "internalType": "address",
          "name": "",
          "type": "address"
        }
      ],
      "name": "authorizedIssuers",
      "outputs": [
        {
          "internalType": "bool",
          "name": "",
          "type": "bool"
        }
      ],
      "stateMutability": "view",
      "type": "function"
    },
    {
      "inputs": [
        {
          "internalType": "string",
          "name": "certId",
          "type": "string"
        }
      ],
      "name": "getCertificate",
      "outputs": [
        {
          "components": [
            {
              "internalType": "string",
              "name": "certId",
              "type": "string"
            },
            {
              "internalType": "bytes32",
              "name": "merkleRoot",
              "type": "bytes32"
            },
            {
              "internalType": "uint256",
              "name": "issuedAt",
              "type": "uint256"
            },
            {
              "internalType": "address",
              "name": "issuedBy",
              "type": "address"
            },
            {
              "internalType": "bool",
              "name": "isRevoked",
              "type": "bool"
            },
            {
              "internalType": "string",
              "name": "metadataURI",
              "type": "string"
            }
          ],
          "internalType": "struct TOEFLCertificate.Certificate",
          "name": "",
          "type": "tuple"
        }
      ],
      "stateMutability": "view",
      "type": "function"
    },
    {
      "inputs": [
        {
          "internalType": "string",
          "name": "certId",
          "type": "string"
        }
      ],
      "name": "getCertificateStatus",
      "outputs": [
        {
          "internalType": "bool",
          "name": "exists",
          "type": "bool"
        },
        {
          "internalType": "bool",
          "name": "isRevoked",
          "type": "bool"
        },
        {
          "internalType": "bytes32",
          "name": "merkleRoot",
          "type": "bytes32"
        },
        {
          "internalType": "uint256",
          "name": "issuedAt",
          "type": "uint256"
        },
        {
          "internalType": "address",
          "name": "issuedBy",
          "type": "address"
        }
      ],
      "stateMutability": "view",
      "type": "function"
    },
    {
      "inputs": [
        {
          "internalType": "bytes32",
          "name": "merkleRoot",
          "type": "bytes32"
        }
      ],
      "name": "getCertsByMerkleRoot",
      "outputs": [
        {
          "internalType": "string[]",
          "name": "",
          "type": "string[]"
        }
      ],
      "stateMutability": "view",
      "type": "function"
    },
    {
      "inputs": [
        {
          "internalType": "string[]",
          "name": "certIds",
          "type": "string[]"
        },
        {
          "internalType": "bytes32",
          "name": "merkleRoot",
          "type": "bytes32"
        },
        {
          "internalType": "string",
          "name": "metadataURI",
          "type": "string"
        }
      ],
      "name": "issueBatch",
      "outputs": [],
      "stateMutability": "nonpayable",
      "type": "function"
    },
    {
      "inputs": [
        {
          "internalType": "string",
          "name": "certId",
          "type": "string"
        },
        {
          "internalType": "bytes32",
          "name": "merkleRoot",
          "type": "bytes32"
        },
        {
          "internalType": "string",
          "name": "metadataURI",
          "type": "string"
        }
      ],
      "name": "issueCertificate",
      "outputs": [],
      "stateMutability": "nonpayable",
      "type": "function"
    },
    {
      "inputs": [],
      "name": "owner",
      "outputs": [
        {
          "internalType": "address",
          "name": "",
          "type": "address"
        }
      ],
      "stateMutability": "view",
      "type": "function"
    },
    {
      "inputs": [
        {
          "internalType": "string",
          "name": "certId",
          "type": "string"
        }
      ],
      "name": "revokeCertificate",
      "outputs": [],
      "stateMutability": "nonpayable",
      "type": "function"
    },
    {
      "inputs": [
        {
          "internalType": "address",
          "name": "issuer",
          "type": "address"
        }
      ],
      "name": "revokeIssuer",
      "outputs": [],
      "stateMutability": "nonpayable",
      "type": "function"
    },
    {
      "inputs": [],
      "name": "totalCertificates",
      "outputs": [
        {
          "internalType": "uint256",
          "name": "",
          "type": "uint256"
        }
      ],
      "stateMutability": "view",
      "type": "function"
    },
    {
      "inputs": [
        {
          "internalType": "string",
          "name": "certId",
          "type": "string"
        },
        {
          "internalType": "bytes32",
          "name": "leaf",
          "type": "bytes32"
        },
        {
          "internalType": "bytes32[]",
          "name": "proof",
          "type": "bytes32[]"
        }
      ],
      "name": "verifyCertificate",
      "outputs": [
        {
          "internalType": "bool",
          "name": "isValid",
          "type": "bool"
        },
        {
          "internalType": "bool",
          "name": "isRevoked",
          "type": "bool"
        },
        {
          "internalType": "uint256",
          "name": "issuedAt",
          "type": "uint256"
        }
      ],
      "stateMutability": "view",
      "type": "function"
    }
  ],
  "bytecode": "0x608060405234801561001057600080fd5b50600080546001600160a01b0319163390811782558152600360205260409020805460ff19166001179055611ae88061004a6000396000f3fe608060405234801561001057600080fd5b50600436106100b25760003560e01c8063596b772f11610071578063596b772f1461015a5780638da5cb5b14610171578063b2b3544f1461019c578063ecdced6c146101af578063ed0f2e75146101f5578063f731fa0f1461021557600080fd5b8062235df1146100b7578062629679146100cc578063142e1542146100df578063351e429b146100f2578063436693d51461012757806344efa1e01461013a575b600080fd5b6100ca6100c53660046114b6565b610248565b005b6100ca6100da366004611523565b610526565b6100ca6100ed366004611553565b610599565b6101056101003660046115b4565b610760565b6040805193151584529115156020840152908201526060015b60405180910390f35b6100ca610135366004611523565b61094e565b61014d61014836600461167d565b6109c4565b60405161011e91906116e6565b61016360055481565b60405190815260200161011e565b600054610184906001600160a01b031681565b6040516001600160a01b03909116815260200161011e565b6100ca6101aa366004611748565b610ab0565b6101c26101bd366004611553565b610e68565b60408051951515865293151560208601529284019190915260608301526001600160a01b0316608082015260a00161011e565b610208610203366004611553565b611035565b60405161011e919061180e565b610238610223366004611523565b60036020526000908152604090205460ff1681565b604051901515815260200161011e565b3360009081526003602052604090205460ff168061027057506000546001600160a01b031633145b6102955760405162461bcd60e51b815260040161028c90611882565b60405180910390fd5b60008351116102e25760405162461bcd60e51b815260206004820152601960248201527863657274496420746964616b20626f6c6568206b6f736f6e6760381b604482015260640161028c565b6001836040516102f291906118d3565b908152604051908190036020019020805461030c906118ef565b1590506103525760405162461bcd60e51b8152602060048201526014602482015273536572746966696b61742073756461682061646160601b604482015260640161028c565b816103995760405162461bcd60e51b815260206004820152601760248201527613595c9adb19481c9bdbdd081d1a59185ac81d985b1a59604a1b604482015260640161028c565b6040805160c0810182528481526020810184905242818301523360608201526000608082015260a0810183905290516001906103d69086906118d3565b908152604051908190036020019020815181906103f39082611972565b506020820151600182015560408201516002820155606082015160038201805460808501511515600160a01b026001600160a81b03199091166001600160a01b039093169290921791909117905560a082015160048201906104559082611972565b5050506000828152600260209081526040822080546001810182559083529120016104808482611972565b50600480546001810182556000919091527f8a35acfbc15ff81a39ae7d344fd709f28e8600b4aa8c65c6b64bfe7fe36bd19b016104bd8482611972565b50600580549060006104ce83611a32565b919050555081836040516104e291906118d3565b60408051918290038220338352426020840152917ff800c1478d805fae1b1bc87ef1b4340845a1f91c8b1fe34e4b239ac04d753a39910160405180910390a3505050565b6000546001600160a01b031633146105505760405162461bcd60e51b815260040161028c90611a59565b6001600160a01b038116600081815260036020526040808220805460ff19169055517f95a4c2ae425bb769549aa1a911911ff57c17ae811ae8c8962d0b9746fcb153979190a250565b3360009081526003602052604090205460ff16806105c157506000546001600160a01b031633145b6105dd5760405162461bcd60e51b815260040161028c90611882565b8060006001826040516105f091906118d3565b908152604051908190036020019020805461060a906118ef565b9050116106595760405162461bcd60e51b815260206004820152601a60248201527f536572746966696b617420746964616b20646974656d756b616e000000000000604482015260640161028c565b60018260405161066991906118d3565b9081526040519081900360200190206003015460ff600160a01b90910416156106d45760405162461bcd60e51b815260206004820152601860248201527f536572746966696b617420737564616820646963616275740000000000000000604482015260640161028c565b600180836040516106e591906118d3565b9081526040519081900360200181206003018054921515600160a01b0260ff60a01b199093169290921790915561071d9083906118d3565b60408051918290038220338352426020840152917f47958cdd7f8a583eead77c76bf001a8af1605d4494014e49cf9cffbe4f8240cd910160405180910390a25050565b60008060008060018760405161077691906118d3565b90815260200160405180910390206040518060c001604052908160008201805461079f906118ef565b80601f01602080910402602001604051908101604052809291908181526020018280546107cb906118ef565b80156108185780601f106107ed57610100808354040283529160200191610818565b820191906000526020600020905b8154815290600101906020018083116107fb57829003601f168201915b5050509183525050600182015460208201526002820154604082015260038201546001600160a01b0381166060830152600160a01b900460ff161515608082015260048201805460a09092019161086e906118ef565b80601f016020809104026020016040519081016040528092919081815260200182805461089a906118ef565b80156108e75780601f106108bc576101008083540402835291602001916108e7565b820191906000526020600020905b8154815290600101906020018083116108ca57829003601f168201915b505050505081525050905080600001515160000361091057600080600093509350935050610945565b60006109218683602001518961128b565b905080801561093257508160800151155b8260800151836040015194509450945050505b93509350939050565b6000546001600160a01b031633146109785760405162461bcd60e51b815260040161028c90611a59565b6001600160a01b038116600081815260036020526040808220805460ff19166001179055517f8b4006ca14f23d4e7aa8d120d1ab7c3761d650eefac1a5d6732dbea94b54ea249190a250565b606060026000838152602001908152602001600020805480602002602001604051908101604052809291908181526020016000905b82821015610aa5578382906000526020600020018054610a18906118ef565b80601f0160208091040260200160405190810160405280929190818152602001828054610a44906118ef565b8015610a915780601f10610a6657610100808354040283529160200191610a91565b820191906000526020600020905b815481529060010190602001808311610a7457829003601f168201915b5050505050815260200190600101906109f9565b505050509050919050565b3360009081526003602052604090205460ff1680610ad857506000546001600160a01b031633145b610af45760405162461bcd60e51b815260040161028c90611882565b6000835111610b455760405162461bcd60e51b815260206004820152601860248201527f426174636820746964616b20626f6c6568206b6f736f6e670000000000000000604482015260640161028c565b606483511115610ba15760405162461bcd60e51b815260206004820152602160248201527f4d616b73696d616c2031303020736572746966696b61742070657220626174636044820152600d60fb1b606482015260840161028c565b81610be85760405162461bcd60e51b815260206004820152601760248201527613595c9adb19481c9bdbdd081d1a59185ac81d985b1a59604a1b604482015260640161028c565b60005b8351811015610e42576000848281518110610c0857610c08611a9c565b602002602001015190506000815111610c5f5760405162461bcd60e51b815260206004820152601960248201527863657274496420746964616b20626f6c6568206b6f736f6e6760381b604482015260640161028c565b600181604051610c6f91906118d3565b9081526040519081900360200190208054610c89906118ef565b159050610ccf5760405162461bcd60e51b8152602060048201526014602482015273536572746966696b61742073756461682061646160601b604482015260640161028c565b6040805160c0810182528281526020810186905242818301523360608201526000608082015260a081018590529051600190610d0c9084906118d3565b90815260405190819003602001902081518190610d299082611972565b506020820151600182015560408201516002820155606082015160038201805460808501511515600160a01b026001600160a81b03199091166001600160a01b039093169290921791909117905560a08201516004820190610d8b9082611972565b5050600480546001810182556000919091527f8a35acfbc15ff81a39ae7d344fd709f28e8600b4aa8c65c6b64bfe7fe36bd19b019050610dcb8282611972565b5060058054906000610ddc83611a32565b91905055508381604051610df091906118d3565b60408051918290038220338352426020840152917ff800c1478d805fae1b1bc87ef1b4340845a1f91c8b1fe34e4b239ac04d753a39910160405180910390a35080610e3a81611a32565b915050610beb565b5060008281526002602090815260409091208451610e629286019061133a565b50505050565b600080600080600080600187604051610e8191906118d3565b90815260200160405180910390206040518060c0016040529081600082018054610eaa906118ef565b80601f0160208091040260200160405190810160405280929190818152602001828054610ed6906118ef565b8015610f235780601f10610ef857610100808354040283529160200191610f23565b820191906000526020600020905b815481529060010190602001808311610f0657829003601f168201915b5050509183525050600182015460208201526002820154604082015260038201546001600160a01b0381166060830152600160a01b900460ff161515608082015260048201805460a090920191610f79906118ef565b80601f0160208091040260200160405190810160405280929190818152602001828054610fa5906118ef565b8015610ff25780601f10610fc757610100808354040283529160200191610ff2565b820191906000526020600020905b815481529060010190602001808311610fd557829003601f168201915b50505050508152505090506000816000015151119550851561102b57806080015194508060200151935080604001519250806060015191505b5091939590929450565b61107c6040518060c0016040528060608152602001600080191681526020016000815260200160006001600160a01b03168152602001600015158152602001606081525090565b81600060018260405161108f91906118d3565b90815260405190819003602001902080546110a9906118ef565b9050116110f85760405162461bcd60e51b815260206004820152601a60248201527f536572746966696b617420746964616b20646974656d756b616e000000000000604482015260640161028c565b60018360405161110891906118d3565b90815260200160405180910390206040518060c0016040529081600082018054611131906118ef565b80601f016020809104026020016040519081016040528092919081815260200182805461115d906118ef565b80156111aa5780601f1061117f576101008083540402835291602001916111aa565b820191906000526020600020905b81548152906001019060200180831161118d57829003601f168201915b5050509183525050600182015460208201526002820154604082015260038201546001600160a01b0381166060830152600160a01b900460ff161515608082015260048201805460a090920191611200906118ef565b80601f016020809104026020016040519081016040528092919081815260200182805461122c906118ef565b80156112795780601f1061124e57610100808354040283529160200191611279565b820191906000526020600020905b81548152906001019060200180831161125c57829003601f168201915b50505050508152505091505b50919050565b600081815b855181101561132f5760008682815181106112ad576112ad611a9c565b602002602001015190508083116112ef57604080516020810185905290810182905260600160405160208183030381529060405280519060200120925061131c565b60408051602081018390529081018490526060016040516020818303038152906040528051906020012092505b508061132781611a32565b915050611290565b509092149392505050565b828054828255906000526020600020908101928215611380579160200282015b8281111561138057825182906113709082611972565b509160200191906001019061135a565b5061138c929150611390565b5090565b8082111561138c5760006113a482826113ad565b50600101611390565b5080546113b9906118ef565b6000825580601f106113c9575050565b601f0160209004906000526020600020908101906113e791906113ea565b50565b5b8082111561138c57600081556001016113eb565b634e487b7160e01b600052604160045260246000fd5b604051601f8201601f1916810167ffffffffffffffff8111828210171561143e5761143e6113ff565b604052919050565b600082601f83011261145757600080fd5b813567ffffffffffffffff811115611471576114716113ff565b611484601f8201601f1916602001611415565b81815284602083860101111561149957600080fd5b816020850160208301376000918101602001919091529392505050565b6000806000606084860312156114cb57600080fd5b833567ffffffffffffffff808211156114e357600080fd5b6114ef87838801611446565b945060208601359350604086013591508082111561150c57600080fd5b5061151986828701611446565b9150509250925092565b60006020828403121561153557600080fd5b81356001600160a01b038116811461154c57600080fd5b9392505050565b60006020828403121561156557600080fd5b813567ffffffffffffffff81111561157c57600080fd5b61158884828501611446565b949350505050565b600067ffffffffffffffff8211156115aa576115aa6113ff565b5060051b60200190565b6000806000606084860312156115c957600080fd5b833567ffffffffffffffff808211156115e157600080fd5b6115ed87838801611446565b94506020915081860135935060408601358181111561160b57600080fd5b86019050601f8101871361161e57600080fd5b803561163161162c82611590565b611415565b81815260059190911b8201830190838101908983111561165057600080fd5b928401925b8284101561166e57833582529284019290840190611655565b80955050505050509250925092565b60006020828403121561168f57600080fd5b5035919050565b60005b838110156116b1578181015183820152602001611699565b50506000910152565b600081518084526116d2816020860160208601611696565b601f01601f19169290920160200192915050565b6000602080830181845280855180835260408601915060408160051b870101925083870160005b8281101561173b57603f198886030184526117298583516116ba565b9450928501929085019060010161170d565b5092979650505050505050565b60008060006060848603121561175d57600080fd5b833567ffffffffffffffff8082111561177557600080fd5b818601915086601f83011261178957600080fd5b8135602061179961162c83611590565b82815260059290921b8401810191818101908a8411156117b857600080fd5b8286015b848110156117f0578035868111156117d45760008081fd5b6117e28d86838b0101611446565b8452509183019183016117bc565b50975050870135945050604086013591508082111561150c57600080fd5b602081526000825160c0602084015261182a60e08401826116ba565b9050602084015160408401526040840151606084015260018060a01b0360608501511660808401526080840151151560a084015260a0840151601f198483030160c085015261187982826116ba565b95945050505050565b60208082526031908201527f546964616b206d656d696c696b6920616b73657320756e74756b206d656e6572604082015270189a5d1ad85b881cd95c9d1a599a5ad85d607a1b606082015260800190565b600082516118e5818460208701611696565b9190910192915050565b600181811c9082168061190357607f821691505b60208210810361128557634e487b7160e01b600052602260045260246000fd5b601f82111561196d57600081815260208120601f850160051c8101602086101561194a5750805b601f850160051c820191505b8181101561196957828155600101611956565b5050505b505050565b815167ffffffffffffffff81111561198c5761198c6113ff565b6119a08161199a84546118ef565b84611923565b602080601f8311600181146119d557600084156119bd5750858301515b600019600386901b1c1916600185901b178555611969565b600085815260208120601f198616915b82811015611a04578886015182559484019460019091019084016119e5565b5085821015611a225787850151600019600388901b60f8161c191681555b5050505050600190811b01905550565b600060018201611a5257634e487b7160e01b600052601160045260246000fd5b5060010190565b60208082526023908201527f48616e7961206f776e65722079616e672062697361206d656c616b756b616e20604082015262696e6960e81b606082015260800190565b634e487b7160e01b600052603260045260246000fdfea264697066735822122044cc382ea1fa2302e7b045d18f167702f16be020e6fec6591b3c5cbf530ba5d564736f6c63430008130033",
  "linkReferences": {},
  "deployedLinkReferences": {}
}